:100000000C9434000C9451000C9451000C94510049
:100010000C9451000C9451000C9451000C9451001C
:100020000C9451000C9451000C9451000C9451000C
:100030000C9451000C9451000C9451000C945100FC
:100040000C9451000C9451000C9451000C945100EC
:100050000C9451000C9451000C9451000C945100DC
:100060000C9451000C94510011241FBECFEFD8E026
:10007000DEBFCDBF11E0A0E0B1E0E4E1F0E102C0FD
:1000800005900D92A630B107D9F721E0A6E0B1E0C6
:1000900001C01D92AE32B207E1F70E94F6040C9443
:1000A00008080C940000AF92CF92EF920F93FC01DE
:1000B0008DEB9AE00197F1F700C000006334D9F1AD
:1000C000643409F46DC0623409F09EC0A4B181E0CB
:1000D00090E0BC010A2C02C0660F771F0A94E2F779
:1000E0006A2BDC010C2C02C0AA0FBB1F0A94E2F79A
:1000F000A62BBC010E2C02C0660F771F0A94E2F7F4
:100100006A2BDC01002E02C0AA0FBB1F0A94E2F783
:10011000A62BBC01022E02C0660F771F0A94E2F7DD
:100120006A2B042E02C0880F991F0A94E2F7862BCF
:1001300084B965E069C0A7B181E090E0BC010A2CF8
:1001400002C0660F771F0A94E2F76A2BDC010C2CC1
:1001500002C0AA0FBB1F0A94E2F7A62BBC010E2C0B
:1001600002C0660F771F0A94E2F76A2BDC01002EAB
:1001700002C0AA0FBB1F0A94E2F7A62BBC01022EF5
:1001800002C0660F771F0A94E2F76A2B042E02C0A2
:10019000880F991F0A94E2F7862B87B968E034C06C
:1001A000AAB181E090E0BC010A2C02C0660F771F63
:1001B0000A94E2F76A2BDC010C2C02C0AA0FBB1FC9
:1001C0000A94E2F7A62BBC010E2C02C0660F771F23
:1001D0000A94E2F76A2BDC01002E02C0AA0FBB1FB3
:1001E0000A94E2F7A62BBC01022E02C0660F771F0D
:1001F0000A94E2F76A2B042E02C0880F991F0A9412
:10020000E2F7862B8AB96BE06F70862F880F6481C6
:10021000607E942F9295990F990F907C42FB442712
:1002200040F9682B642B64832770822F880F880F16
:10023000880F0770292F282B202B2383EE0CEE0C20
:10024000EE0CEE0CEE0C82818F71E82AE2828C2D8E
:1002500087709081292F28739A2D9295990F990F65
:10026000907CC22EC82AC92AC082A2FA882780F9A7
:1002700091819E7FA92EA82AA18285818B7F8D7F67
:1002800085830F91EF90CF90AF900895CF93DF9338
:10029000FC01858181FF56C0A4818A2F82958695B5
:1002A0008770A581A170AA0FAA0FAA0FA82BB0E092
:1002B00090964C9190978081982F929596959695CF
:1002C000937081818170880F880F892B21E030E045
:1002D000B90102C0660F771F8A95E2F7CB01842B24
:1002E00090968C9389EF90E00197F1F700C00000A1
:1002F000A4818A2F829586958770A581A170AA0F07
:10030000AA0FAA0FA82BB0E090964C9190978081ED
:10031000982F929596959695937081818170880F0C
:10032000880F892B02C0220F331F8A95E2F7209590
:10033000242390962C93A9EFB0E01197F1F700C019
:10034000000045C0A481A695AF70B0E090964C9196
:1003500090972081822F8295869586958370218142
:100360002170220F220F282B81E090E0EC0102C0C7
:10037000CC0FDD1F2A95E2F79E01242B90962C933B
:10038000A9EFB0E01197F1F700C00000A481A69595
:10039000AF70B0E090964C9190972081322F3295BB
:1003A00036953695337021812170220F220F232B31
:1003B00002C0880F991F2A95E2F7809584239096B2
:1003C0008C93C9EFD0E02197F1F700C00000858140
:1003D00081FF06C0E481E695EF70F0E010A23DC019
:1003E0002481A22FA695AF70B0E090964C91909783
:1003F0003381532F569556955695577081E090E06E
:10040000EC0102C0CC0FDD1F5A95E2F7532F529535
:100410005695569553702170220F220F522BBC0116
:1004200002C0660F771F5A95E2F76C2B3770EC010C
:1004300002C0CC0FDD1F3A95E2F79E01262B3281D8
:1004400032953695377002C0880F991F3A95E2F7BA
:10045000822B8095842390968C93DF91CF91089581
:10046000DC0115968C91159781FF1EC01496EC91B6
:1004700014978E2F8295869587701596EC91159717
:10048000E170EE0FEE0FEE0FE82BF0E030A12C91B3
:10049000277081E090E002C0880F991F2A95E2F74B
:1004A0008095832380A308951496EC911497E69584
:1004B000EF70F0E030A12C91277081E090E002C055
:1004C000880F991F2A95E2F78095832380A30895CA
:1004D000DC0115968C91159781FF1DC01496EC9147
:1004E00014978E2F8295869587701596EC911597A7
:1004F000E170EE0FEE0FEE0FE82BF0E030A12C9143
:10050000277081E090E002C0880F991F2A95E2F7DA
:10051000832B80A308951496EC911497E695EF70C1
:10052000F0E030A12C91277081E090E002C0880FAC
:10053000991F2A95E2F7832B80A30895FC018681F9
:100540008823ECF48481A82FA695AF70B0E0909634
:100550004C91909793819295969596959370817012
:10056000880F880F982B21E030E0B90102C0660F98
:10057000771F9A95E2F7CB01842B90968C93868116
:1005800086FF16C0A481A695AF70B0E090963C910E
:1005900090972381269526952695277081E090E0F7
:1005A00002C0880F991F2A95E2F7832B90968C93AF
:1005B000868185FF13C0A481A695AF70B0E09096A8
:1005C0003C9190972381277081E090E002C0880FD2
:1005D000991F2A95E2F7832B90968C93868184FF4E
:1005E00015C0A481A695AF70B0E090963C9190970D
:1005F000228122952695277081E090E002C0880F25
:10060000991F2A95E2F7832B90968C930895FC010D
:10061000858181FF65C0868183FF15C0A481A69571
:10062000AF70B0E090963C919097228126952695E8
:10063000277081E090E002C0880F991F2A95E2F7A9
:10064000832B90968C93868182FF1AC0A481A695F5
:10065000AF70B0E090963C9190972181922F991FB6
:100660009927991F22812370220F292B81E090E086
:1006700002C0880F991F2A95E2F7832B90968C93DE
:10068000868181FF15C0A481A695AF70B0E09096D9
:100690003C919097218122952F70277081E090E006
:1006A00002C0880F991F2A95E2F7832B90968C93AE
:1006B000868180FF1CC0A481A695AF70B0E09096A3
:1006C0003C91909721812695277081E090E002C0AF
:1006D000880F991F2A95E2F7832B90968C930895A3
:1006E00086818295807F8683CF010E949E02089535
:1006F000CF93DF93EC010E949E02CE010E9407037C
:10070000DF91CF910895CF93DF93EC016E838D81BC
:1007100081FF25C082FF1CC0EC818E2F82958695BB
:100720008770ED81E170EE0FEE0FEE0FE82BF0E039
:1007300030A12881269526952695277081E090E0A6
:1007400002C0880F991F2A95E2F78095832380A322
:10075000CE010E947803CE010E9446012AC082FF8A
:100760001CC0EC818E2F829586958770ED81E1709B
:10077000EE0FEE0FEE0FE82BF0E030A1288126956A
:1007800026952695277081E090E002C0880F991F7A
:100790002A95E2F78095832380A3CE010E949E02D2
:1007A000CE010E944601CE010E940703CE010E94A5
:1007B0004601DF91CF910895CF93DF93EC010E9422
:1007C000300261E0CE010E94830300C0DF91CF912F
:1007D0000895FF920F931F93CF93DF938C01EB014A
:1007E0000E946802F12C08C0FE01E20FF31F608135
:1007F000C8010E948303F3942F2D30E0FE01019085
:100800000020E9F73197EC1BFD0B2E173F0760F333
:10081000DF91CF911F910F91FF900895CF93DF93B8
:10082000CDB7DEB7AE01475F5F4F6F81788586E059
:1008300091E00E94360566E071E08D819E810E9404
:10084000E903DF91CF9108950F931F93CF93DF9327
:10085000EC018D8181FBEE27E0F9F0E08A81982F91
:1008600092959695977002C0EE0FFF1F9A95E2F74A
:10087000E0629981392F331F3327331F982F9370EC
:10088000990F932B01C0000F9A95EAF7E02B0FEF19
:10089000060F86958695877001C0000F8A95EAF746
:1008A0000E2B2C60440F142F122BCE010E9430020D
:1008B0008D8181FD13C0EC81E695EF70F0E030A1F1
:1008C0002B81277081E090E002C0880F991F2A9544
:1008D000E2F7832B80A3CE010E944601602FCE0158
:1008E0000E948303612FCE010E948303CE010E94E8
:1008F000DC03DF91CF911F910F9108950F931F9308
:10090000CF938C01C42F80E4689FC00D1124C801CF
:100910000E9430026C2F6068C8010E948303CF914F
:100920001F910F910895BF92CF92DF92EF92FF92A5
:100930000F931F93CF93DF937C01042FE901611183
:1009400005C00F2EFCE1DF2EF02D04C00F2EF8E1C4
:10095000DF2EF02DC7010E9430020023D1F010E0FD
:10096000BB24B394C12C6D2DC7010E948303C230F8
:10097000D10564F0EB2DFC2D83EC99E00197F1F7A4
:1009800000C000003A96EC17FD07B4F31F5F101388
:10099000EACFDF91CF911F910F91FF90EF90DF9001
:1009A000CF90BF9008959A01462F61E00E94930472
:1009B00008951F93CF93DF93EC01842F122F462FBE
:1009C000682FCE010E947E04CE010E9430021123C6
:1009D00029F066E0CE010E94830304C064E0CE01EA
:1009E0000E948303DF91CF911F910895CF93DF93EE
:1009F000CDB7DEB727970FB6F894DEBF0FBECDBFD9
:100A00006894AA24A1F80F2EF3E0CF2EF02D68945D
:100A1000EE24E2F805E026E047E064E4CE0101962A
:100A20004C010E94530000E020E041E062E0C4017C
:100A30000E942404C4010E94300220E040E067E2EA
:100A4000C4010E94D90480E091E09F938F939F920C
:100A50008F920E940E0444E650E068E1C4010E94B7
:100A6000D3040F900F900F900F90FFCFAEE0B0E047
:100A7000ECE3F5E00C94DF078C0186E08C831A83AD
:100A800009838FEF9FE79E838D83CE0101960E949D
:100A900053052F813885F801E20FF31F10822E963F
:100AA000E4E00C94FB07ACE0B0E0E9E5F5E00C9481
:100AB000D1077C016B018A01FC01178216828381B8
:100AC00081FFBDC1CE0101964C01F7019381F60172
:100AD00093FD859193FF81916F01882309F4ABC148
:100AE000853239F493FD859193FF81916F018532B1
:100AF00029F4B70190E00E943B07E7CF512C312C3D
:100B000020E02032A0F48B3269F030F4803259F0CA
:100B1000833269F420612CC08D3239F0803339F48E
:100B2000216026C02260246023C0286021C027FDE8
:100B300027C030ED380F3A3078F426FF06C0FAE0CF
:100B40005F9E300D1124532E13C08AE0389E300D65
:100B50001124332E20620CC08E3221F426FD6BC18D
:100B6000206406C08C3611F4206802C0883641F437
:100B7000F60193FD859193FF81916F018111C1CFA2
:100B8000982F9F7D9554933028F40C5F1F4FFFE3FF
:100B9000F9830DC0833631F0833771F0833509F066
:100BA0005BC022C0F801808189830E5F1F4F4424FF
:100BB0004394512C540115C03801F2E06F0E711CA2
:100BC000F801A080B18026FF03C0652D70E002C04F
:100BD0006FEF7FEFC5012C870E9430072C01830146
:100BE0002C852F77222E17C03801F2E06F0E711C72
:100BF000F801A080B18026FF03C0652D70E002C01F
:100C00006FEF7FEFC5012C870E9425072C012C85F3
:100C10002068222E830123FC1BC0832D90E0481600
:100C20005906B0F4B70180E290E00E943B073A9485
:100C3000F4CFF50127FC859127FE81915F01B70173
:100C400090E00E943B0731103A94F1E04F1A5108AE
:100C50004114510471F7E5C0843611F0893639F535
:100C6000F80127FF07C060817181828193810C5F49
:100C70001F4F08C060817181072E000C880B990BF3
:100C80000E5F1F4F2F76722E97FF09C090958095AB
:100C9000709561957F4F8F4F9F4F2068722E2AE08D
:100CA00030E0A4010E947307A82EA81844C085371D
:100CB00029F42F7EB22E2AE030E025C0F22FF97FF2
:100CC000BF2E8F36C1F018F4883579F0B4C0803764
:100CD00019F0883721F0AFC02F2F2061B22EB4FE5B
:100CE0000DC08B2D8460B82E09C024FF0AC09F2F31
:100CF0009660B92E06C028E030E005C020E130E063
:100D000002C020E132E0F801B7FE07C060817181C6
:100D1000828193810C5F1F4F06C06081718180E0EA
:100D200090E00E5F1F4FA4010E947307A82EA81821
:100D3000FB2DFF777F2E76FE0BC0372D3E7FA5144F
:100D400050F474FE0AC072FC08C0372D3E7E05C008
:100D5000BA2C372D03C0BA2C01C0B52C34FF0DC0FE
:100D6000FE01EA0DF11D8081803311F4397E09C046
:100D700032FF06C0B394B39404C0832F867809F081
:100D8000B39433FD13C030FF06C05A2CB31418F4CB
:100D9000530C5B18B32CB31468F4B70180E290E0F5
:100DA0003C870E943B07B3943C85F5CFB31410F405
:100DB0003B1801C0312C34FF12C0B70180E390E032
:100DC0003C870E943B073C8532FF17C031FD03C0C2
:100DD00088E790E002C088E590E0B7010CC0832F5F
:100DE000867859F031FF02C08BE201C080E237FD06
:100DF0008DE2B70190E00E943B07A51438F4B701DB
:100E000080E390E00E943B075A94F7CFAA94F40144
:100E1000EA0DF11D8081B70190E00E943B07A1100F
:100E2000F5CF332009F451CEB70180E290E00E9463
:100E30003B073A94F6CFF7018681978102C08FEF86
:100E40009FEF2C96E2E10C94ED07FC0105906150B8
:100E500070400110D8F7809590958E0F9F1F0895D0
:100E6000FC016150704001900110D8F78095909579
:100E70008E0F9F1F08950F931F93CF93DF93FB0156
:100E8000238121FD03C08FEF9FEF28C022FF16C0F2
:100E900046815781248135814217530744F4A0814C
:100EA000B1819D012F5F3F4F318320838C93268139
:100EB00037812F5F3F4F3783268310C0EB01092F07
:100EC000182F0084F185E02D0995892BE1F68E819C
:100ED0009F8101969F838E83812F902FDF91CF91E9
:100EE0001F910F910895FA01AA27283051F120315E
:100EF00081F1E8946F936E7F6E5F7F4F8F4F9F4FAE
:100F0000AF4FB1E03ED0B4E03CD0670F781F891FEF
:100F10009A1FA11D680F791F8A1F911DA11D6A0FBD
:100F2000711D811D911DA11D20D009F468943F9170
:100F30002AE0269F11243019305D3193DEF6CF016F
:100F40000895462F4770405D4193B3E00FD0C9F735
:100F5000F6CF462F4F70405D4A3318F0495D31FDA2
:100F60004052419302D0A9F7EACFB4E0A6959795F5
:100F7000879577956795BA95C9F7009761057105CB
:100F800008959B01AC010A2E069457954795379515
:100F90002795BA95C9F7620F731F841F951FA01D6F
:100FA00008952F923F924F925F926F927F928F920D
:100FB0009F92AF92BF92CF92DF92EF92FF920F93E8
:100FC0001F93CF93DF93CDB7DEB7CA1BDB0B0FB6F2
:100FD000F894DEBF0FBECDBF09942A8839884888AF
:100FE0005F846E847D848C849B84AA84B984C88445
:100FF000DF80EE80FD800C811B81AA81B981CE0F3C
:10100000D11D0FB6F894DEBF0FBECDBFED01089520
:04101000F894FFCF82
:06101400616E6173000033
:00000001FF
