:100000000C9434000C9451000C9451000C94510049
:100010000C9451000C9451000C9451000C9451001C
:100020000C9451000C9451000C9451000C9451000C
:100030000C9451000C9451000C9451000C945100FC
:100040000C9451000C9451000C9451000C945100EC
:100050000C9451000C9451000C9451000C945100DC
:100060000C9451000C94510011241FBECFEFD8E026
:10007000DEBFCDBF11E0A0E0B1E0E0E3F1E102C0FE
:1000800005900D92A434B107D9F721E0A4E4B1E0C2
:1000900001C01D92AC36B207E1F70E94E1040C9456
:1000A00096080C940000AF92CF92EF920F93FC0150
:1000B0008DEB9AE00197F1F700C000006334D9F1AD
:1000C000643409F46DC0623409F09EC0A4B181E0CB
:1000D00090E0BC010A2C02C0660F771F0A94E2F779
:1000E0006A2BDC010C2C02C0AA0FBB1F0A94E2F79A
:1000F000A62BBC010E2C02C0660F771F0A94E2F7F4
:100100006A2BDC01002E02C0AA0FBB1F0A94E2F783
:10011000A62BBC01022E02C0660F771F0A94E2F7DD
:100120006A2B042E02C0880F991F0A94E2F7862BCF
:1001300084B965E069C0A7B181E090E0BC010A2CF8
:1001400002C0660F771F0A94E2F76A2BDC010C2CC1
:1001500002C0AA0FBB1F0A94E2F7A62BBC010E2C0B
:1001600002C0660F771F0A94E2F76A2BDC01002EAB
:1001700002C0AA0FBB1F0A94E2F7A62BBC01022EF5
:1001800002C0660F771F0A94E2F76A2B042E02C0A2
:10019000880F991F0A94E2F7862B87B968E034C06C
:1001A000AAB181E090E0BC010A2C02C0660F771F63
:1001B0000A94E2F76A2BDC010C2C02C0AA0FBB1FC9
:1001C0000A94E2F7A62BBC010E2C02C0660F771F23
:1001D0000A94E2F76A2BDC01002E02C0AA0FBB1FB3
:1001E0000A94E2F7A62BBC01022E02C0660F771F0D
:1001F0000A94E2F76A2B042E02C0880F991F0A9412
:10020000E2F7862B8AB96BE06F70862F880F6481C6
:10021000607E942F9295990F990F907C42FB442712
:1002200040F9682B642B64832770822F880F880F16
:10023000880F0770292F282B202B2383EE0CEE0C20
:10024000EE0CEE0CEE0C82818F71E82AE2828C2D8E
:1002500087709081292F28739A2D9295990F990F65
:10026000907CC22EC82AC92AC082A2FA882780F9A7
:1002700091819E7FA92EA82AA18285818B7F8D7F67
:1002800085830F91EF90CF90AF900895CF93DF9338
:10029000FC01858181FF4FC0A4818A2F82958695BC
:1002A0008770A581A170AA0FAA0FAA0FA82BB0E092
:1002B00090964C9190978081982F929596959695CF
:1002C000937081818170880F880F892B21E030E045
:1002D000B90102C0660F771F8A95E2F7CB01842B24
:1002E00090968C93A4818A2F829586958770A5819C
:1002F000A170AA0FAA0FAA0FA82BB0E090964C915C
:1003000090978081982F929596959695937081817C
:100310008170880F880F892B02C0220F331F8A95A6
:10032000E2F72095242390962C93E481E695EF70D4
:10033000F0E010A276C0A481A695AF70B0E09096D0
:100340004C9190972081822F829586958695837017
:1003500021812170220F220F282B81E090E0EC01F7
:1003600002C0CC0FDD1F2A95E2F79E01242B909648
:100370002C93A481A695AF70B0E090965C91909775
:100380003081432F429546954695437031813170B7
:10039000330F330F342BBC0102C0660F771F3A9521
:1003A000E2F79B012095252390962C932481A22F80
:1003B000A695AF70B0E090964C9190973381532FF3
:1003C0005695569556955770EC0102C0CC0FDD1F1F
:1003D0005A95E2F7532F52955695569553702170C2
:1003E000220F220F522BBC0102C0660F771F5A95B5
:1003F000E2F76C2B3770EC0102C0CC0FDD1F3A9591
:10040000E2F79E01262B328132953695377002C075
:10041000880F991F3A95E2F7822B80958423909656
:100420008C93DF91CF910895DC0115968C911597EF
:1004300081FF1EC01496EC9114978E2F829586959D
:1004400087701596EC911597E170EE0FEE0FEE0F99
:10045000E82BF0E030A12C91277081E090E002C001
:10046000880F991F2A95E2F78095832380A308952A
:100470001496EC911497E695EF70F0E030A12C9172
:10048000277081E090E002C0880F991F2A95E2F75B
:100490008095832380A30895DC0115968C91159790
:1004A00081FF1DC01496EC9114978E2F829586952E
:1004B00087701596EC911597E170EE0FEE0FEE0F29
:1004C000E82BF0E030A12C91277081E090E002C091
:1004D000880F991F2A95E2F7832B80A3089514961D
:1004E000EC911497E695EF70F0E030A12C91277015
:1004F00081E090E002C0880F991F2A95E2F7832BD4
:1005000080A30895FC0186818823ECF48481A82FC0
:10051000A695AF70B0E090964C919097938192958C
:100520009695969593708170880F880F982B21E08F
:1005300030E0B90102C0660F771F9A95E2F7CB0150
:10054000842B90968C93868186FF16C0A481A695F5
:10055000AF70B0E090963C919097238126952695B8
:100560002695277081E090E002C0880F991F2A9598
:10057000E2F7832B90968C93868185FF13C0A4812C
:10058000A695AF70B0E090963C919097238127702C
:1005900081E090E002C0880F991F2A95E2F7832B33
:1005A00090968C93868184FF15C0A481A695AF7028
:1005B000B0E090963C9190972281229526952770E5
:1005C00081E090E002C0880F991F2A95E2F7832B03
:1005D00090968C930895FC01858181FF65C086818A
:1005E00083FF15C0A481A695AF70B0E090963C91B2
:1005F0009097228126952695277081E090E002C091
:10060000880F991F2A95E2F7832B90968C93868109
:1006100082FF1AC0A481A695AF70B0E090963C917D
:1006200090972181922F991F9927991F22812370DA
:10063000220F292B81E090E002C0880F991F2A9594
:10064000E2F7832B90968C93868181FF15C0A4815D
:10065000A695AF70B0E090963C919097218122953D
:100660002F70277081E090E002C0880F991F2A95B3
:10067000E2F7832B90968C93868180FF1CC0A48127
:10068000A695AF70B0E090963C9190972181269509
:10069000277081E090E002C0880F991F2A95E2F749
:1006A000832B90968C93089586818295807F868394
:1006B000CF010E9482020895CF93DF93EC016E83F5
:1006C0008D8181FF28C082FF1CC0EC818E2F829516
:1006D00086958770ED81E170EE0FEE0FEE0FE82B3F
:1006E000F0E030A12881269526952695277081E097
:1006F00090E002C0880F991F2A95E2F78095832326
:1007000080A3CE010E948202CE010E94EB02CE01A4
:100710000E9446012AC082FF1CC0EC818E2F829568
:1007200086958770ED81E170EE0FEE0FEE0FE82BEE
:10073000F0E030A12881269526952695277081E046
:1007400090E002C0880F991F2A95E2F780958323D5
:1007500080A3CE010E948202CE010E944601CE01FA
:100760000E94EB02CE010E944601DF91CF910895D5
:10077000CF92DF92EF92FF920F931F93CF93DF936D
:100780007C016B01042F0E944C02402F000F550B7F
:100790004115510559F0E6018601040F151F6991B5
:1007A000C7010E945C03C017D107C9F7DF91CF9141
:1007B0001F910F91FF90EF90DF90CF900895CF930E
:1007C000DF93CDB7DEB7AE01475F5F4F6F817885AE
:1007D00084E491E00E94C405482F64E471E08D81B7
:1007E0009E810E94B803DF91CF9108950F931F93CC
:1007F000CF93DF93EC018D8181FBEE27E0F9F0E0F0
:10080000E295F295F07FFE27E07FFE27E062000F81
:10081000000FE02B0FEF060F000F000F000F0E2B45
:100820002C60440F142F122BCE010E9414028D81D4
:1008300081FD0AC0EC81E695EF70F0E080A1806256
:1008400080A3CE010E944601602FCE010E945C036E
:1008500080E094E00197F1F700C00000612FCE0125
:100860000E945C0380E094E00197F1F700C0000073
:10087000CE010E94140261E0CE010E945C0300C020
:1008800080E094E00197F1F700C00000DF91CF9184
:100890001F910F9108950F931F93CF938C01C42F35
:1008A00080E4689FC00D1124C8010E9414026C2FBF
:1008B0006068C8010E945C03CF911F910F91089559
:1008C000BF92CF92DF92EF92FF920F931F93CF933D
:1008D000DF937C01042FE901611105C00F2EFCE1BB
:1008E000DF2EF02D04C00F2EF8E1DF2EF02DC70112
:1008F0000E9414020023D1F010E0BB24B394C12C59
:100900006D2DC7010E945C03C230D10564F0EB2D50
:10091000FC2D83EC99E00197F1F700C000003A96B6
:10092000EC17FD07B4F31F5F1013EACFDF91CF91EF
:100930001F910F91FF90EF90DF90CF90BF9008959F
:10094000DF92EF92FF920F931F93CF93DF937C017F
:100950008B014F3F31F0440F440F440F40644093EC
:100960000001C7010E941402D09000016D2DC70143
:100970000E945C03C7010E944C02E801085F1F4F00
:100980006991C7010E945C03C017D107C9F768E0ED
:100990006D0D6093000170E060547109CB019923E3
:1009A0000CF40796959587959595879595958795D8
:1009B0008150DF91CF911F910F91FF90EF90DF90C9
:1009C0000895CF93DF93CDB7DEB7A7970FB6F8940E
:1009D000DEBF0FBECDBF4E0121E2820E911C689496
:1009E000AA24A1F80F2EF3E0CF2EF02D6894EE2468
:1009F000E2F805E026E047E064E4C4010E94530009
:100A000000E020E041E062E0C4010E94F60388E0DB
:100A1000E1E0F1E0DE01599601900D928A95E1F74F
:100A200088E0E9E0F1E0DE01519601900D928A95AF
:100A3000E1F788E0E1E1F1E0DE01199601900D9225
:100A40008A95E1F788E0E9E1F1E0DE011196019095
:100A50000D928A95E1F74FEFBE01675E7F4FC401AB
:100A60000E94A004082F4FEFBE016F5E7F4FC401AC
:100A70000E94A004F82E4FEFBE01675F7F4FC401B4
:100A80000E94A004E82E4FEFBE016F5F7F4FC401AC
:100A90000E94A004182FC4010E94140261E0C40146
:100AA0000E945C0384E08A95F1F700C0C4010E94B3
:100AB000140262E0C4010E945C038FEC9CE0019789
:100AC000F1F700C0000040E060E0C4010E944B0468
:100AD000C4010E944C02612FC4010E945C0321E208
:100AE00031E03F932F939F928F920E94DF03C401C6
:100AF0000E944C02612FC4010E945C0340E061E04F
:100B0000C4010E944B041F92EF921F92FF921F920A
:100B10001F931F920F9389E291E09F938F939F926F
:100B20008F920E94DF039FEF22E587E091502040E3
:100B30008040E1F700C000000FB6F894DEBF0FBEA2
:100B4000CDBF24E630E046E061E0CE0181960E9410
:100B500060049FEF21EE84E0915020408040E1F757
:100B600000C0000024E630E046E060E0CE0181965F
:100B70000E9460049FEF21EE84E09150204080406D
:100B8000E1F700C00000DDCFAEE0B0E0EAECF5E058
:100B90000C946D088C0186E08C831A8309838FEF97
:100BA0009FE79E838D83CE0101960E94E1052F81F0
:100BB0003885F801E20FF31F10822E96E4E00C94C2
:100BC0008908ACE0B0E0E7EEF5E00C945F087C014A
:100BD0006B018A01FC0117821682838181FFBDC1EE
:100BE000CE0101964C01F7019381F60193FD8591A9
:100BF00093FF81916F01882309F4ABC1853239F4E9
:100C000093FD859193FF81916F01853229F4B7019E
:100C100090E00E94C907E7CF512C312C20E0203210
:100C2000A0F48B3269F030F4803259F0833269F4E9
:100C300020612CC08D3239F0803339F4216026C018
:100C40002260246023C0286021C027FD27C030ED2A
:100C5000380F3A3078F426FF06C0FAE05F9E300D78
:100C60001124532E13C08AE0389E300D1124332EE8
:100C700020620CC08E3221F426FD6BC1206406C0B8
:100C80008C3611F4206802C0883641F4F60193FDD9
:100C9000859193FF81916F018111C1CF982F9F7D25
:100CA0009554933028F40C5F1F4FFFE3F9830DC078
:100CB000833631F0833771F0833509F05BC022C091
:100CC000F801808189830E5F1F4F44244394512C87
:100CD000540115C03801F2E06F0E711CF801A080BC
:100CE000B18026FF03C0652D70E002C06FEF7FEF7B
:100CF000C5012C870E94BE072C0183012C852F770C
:100D0000222E17C03801F2E06F0E711CF801A0808E
:100D1000B18026FF03C0652D70E002C06FEF7FEF4A
:100D2000C5012C870E94B3072C012C852068222E38
:100D3000830123FC1BC0832D90E048165906B0F4B4
:100D4000B70180E290E00E94C9073A94F4CFF50120
:100D500027FC859127FE81915F01B70190E00E94F9
:100D6000C90731103A94F1E04F1A51084114510467
:100D700071F7E5C0843611F0893639F5F80127FF9F
:100D800007C060817181828193810C5F1F4F08C011
:100D900060817181072E000C880B990B0E5F1F4F2D
:100DA0002F76722E97FF09C090958095709561956A
:100DB0007F4F8F4F9F4F2068722E2AE030E0A401B2
:100DC0000E940108A82EA81844C0853729F42F7E58
:100DD000B22E2AE030E025C0F22FF97FBF2E8F36E9
:100DE000C1F018F4883579F0B4C0803719F088372D
:100DF00021F0AFC02F2F2061B22EB4FE0DC08B2D7D
:100E00008460B82E09C024FF0AC09F2F9660B92EB7
:100E100006C028E030E005C020E130E002C020E15B
:100E200032E0F801B7FE07C0608171818281938151
:100E30000C5F1F4F06C06081718180E090E00E5F03
:100E40001F4FA4010E940108A82EA818FB2DFF77B0
:100E50007F2E76FE0BC0372D3E7FA51450F474FE16
:100E60000AC072FC08C0372D3E7E05C0BA2C372D53
:100E700003C0BA2C01C0B52C34FF0DC0FE01EA0D31
:100E8000F11D8081803311F4397E09C032FF06C024
:100E9000B394B39404C0832F867809F0B39433FDE0
:100EA00013C030FF06C05A2CB31418F4530C5B184F
:100EB000B32CB31468F4B70180E290E03C870E9441
:100EC000C907B3943C85F5CFB31410F43B1801C0A7
:100ED000312C34FF12C0B70180E390E03C870E94C0
:100EE000C9073C8532FF17C031FD03C088E790E099
:100EF00002C088E590E0B7010CC0832F867859F0D6
:100F000031FF02C08BE201C080E237FD8DE2B70104
:100F100090E00E94C907A51438F4B70180E390E07F
:100F20000E94C9075A94F7CFAA94F401EA0DF11D63
:100F30008081B70190E00E94C907A110F5CF33204E
:100F400009F451CEB70180E290E00E94C9073A94BB
:100F5000F6CFF7018681978102C08FEF9FEF2C9625
:100F6000E2E10C947B08FC01059061507040011097
:100F7000D8F7809590958E0F9F1F0895FC016150C2
:100F8000704001900110D8F7809590958E0F9F1FAB
:100F900008950F931F93CF93DF93FB01238121FDCE
:100FA00003C08FEF9FEF28C022FF16C046815781F4
:100FB000248135814217530744F4A081B1819D01FA
:100FC0002F5F3F4F318320838C93268137812F5FA2
:100FD0003F4F3783268310C0EB01092F182F008461
:100FE000F185E02D0995892BE1F68E819F8101968F
:100FF0009F838E83812F902FDF91CF911F910F912F
:101000000895FA01AA27283051F1203181F1E8949E
:101010006F936E7F6E5F7F4F8F4F9F4FAF4FB1E0EB
:101020003ED0B4E03CD0670F781F891F9A1FA11DE6
:10103000680F791F8A1F911DA11D6A0F711D811DE7
:10104000911DA11D20D009F468943F912AE0269FAC
:1010500011243019305D3193DEF6CF010895462F0B
:101060004770405D4193B3E00FD0C9F7F6CF462FEC
:101070004F70405D4A3318F0495D31FD4052419355
:1010800002D0A9F7EACFB4E0A69597958795779512
:101090006795BA95C9F700976105710508959B0199
:1010A000AC010A2E06945795479537952795BA9522
:1010B000C9F7620F731F841F951FA01D08952F92FB
:1010C0003F924F925F926F927F928F929F92AF92D8
:1010D000BF92CF92DF92EF92FF920F931F93CF9325
:1010E000DF93CDB7DEB7CA1BDB0B0FB6F894DEBFBC
:1010F0000FBECDBF09942A88398848885F846E84E2
:101100007D848C849B84AA84B984C884DF80EE802B
:10111000FD800C811B81AA81B981CE0FD11D0FB634
:10112000F894DEBF0FBECDBFED010895F894FFCF58
:1011300040000E1517110E00000A0A1F1F0E0404AE
:101140000004041F000E040400000A0A00110E002F
:10115000002048656C6C6F2000646566696E65648C
:101160002063686172733A2025632025632025631C
:0411700020256300D3
:00000001FF
